:1000000012C019C018C017C016C015C014C013C044
:1000100012C0A9C010C00FC00EC00DC00CC00BC0D4
:100020000AC009C008C011241FBECFE5D4E0DEBF5E
:10003000CDBF02D0A5C0A3C08FD077D027D02030AD
:1000400009F479D01DD002D0FFCF08953068306414
:100050000DD011D036FDFDCF06D071D001D008955E
:10006000306804D008953F7701D008954ED03FD036
:1000700020D058D0089549D02BD014D053D0089513
:1000800044D035D0332715D04DD008952FE73DD03B
:100090002ED00F3F29F400272150203009F0F7CF50
:1000A00041D0089504E806BF06B707FFFDCF33B17E
:1000B000089506B707FFFDCF33B904E806BF06B7BA
:1000C00007FFFDCF01B1087F083209F034D0089551
:1000D000022F000F016003B904E806BF06B707FF4F
:1000E000FDCF01B1087F003409F025D00895022F1B
:1000F000000F03B904E806BF06B707FFFDCF01B143
:10010000087F083109F00FEF089504EA06BF06B72B
:1001100007FFFDCF01B1087F083019F0003109F069
:100120000AD0089504E906BF08950CE000B901B1B2
:10013000036001B908958F9A979AFFCF089502D06E
:1001400001D0089505D004D003D002D001D0089585
:1001500014E01030F1F7089501E0046003BF01E0FE
:1001600009BF78940895F8940F930FB70F930FE990
:1001700002BF11500F910FBF0F91789418951895E9
:04018000F894FFCF21
:00000001FF
